:10000000F6C000000C947C090C94A30918C10000F0
:1000100016C1000014C100002AC1000010C1000078
:100020000EC100000CC100000AC1000008C10000A0
:1000300006C1000004C1000002C1000000C10000B0
:100040000C94D609FCC0000074C60000A4C60000D1
:10005000F6C00000F4C00000F2C00000F0C00000D4
:100060000C945C17ECC000000000000800020100C6
:100070000003040700000000000000000102040863
:100080001020408001020408102001020408102002
:10009000040404040404040402020202020203032E
:1000A00003030303000000002300260029000000D2
:1000B0000000250028002B0000000000240027007D
:1000C0002A00010402000302048A050506C30B206E
:1000D00019421E2C25802E902FAA302D3700380073
:1000E0003C8F3D106F2000005EBCE2613FDD83C2AB
:1000F0009C7E20A3FD1F419DC3217FFCA2401E5F6B
:1001000001E3BD3E6082DC237D9FC1421CFEA0E175
:10011000BF5D0380DE3C62BEE0025CDF81633D7C4C
:1001200022C09E1D43A1FF4618FAA427799BC584CF
:10013000DA3866E5BB5907DB856739BAE406581932
:1001400047A5FB7826C49A653BD987045AB8E6A729
:10015000F91B45C6987A24F8A6441A99C7257B3A14
:100160006486D85B05E7B98CD2306EEDB3510F4E83
:1001700010F2AC2F7193CD114FADF3702ECC92D302
:100180008D6F31B2EC0E50AFF1134DCE90722C6DDD
:1001900033D18F0C52B0EE326C8ED0530DEFB1F0E4
:1001A000AE4C1291CF2D73CA947628ABF51749083F
:1001B00056B4EA6937D58B5709EBB536688AD495BA
:1001C000CB2977F4AA4816E9B7550B88D6346A2BA1
:1001D0007597C94A14F6A8742AC896154BA9F7B69C
:1001E000E80A54D7896B35004805F90673161124BF
:1001F0001FBECFEFD8E0DEBFCDBF12E0A0E0B1E080
:10020000EEE1F6E302C005900D92A433B107D9F7F1
:1002100024E0A4E3B2E001C01D92A435B207E1F7E7
:1002200011E0CEEED1E004C02297FE010E94EA1850
:10023000C83ED107C9F70E94CB090C940D1BE0CE34
:1002400081E08093380280913D0290913E02A0911E
:100250003F02B09140020196A11DB11D80933D0265
:1002600090933E02A0933F02B093400208951F92E4
:100270000F920FB60F9211242F933F934F935F93DA
:100280006F937F938F939F93AF93BF93EF93FF935E
:100290000E94330CFF91EF91BF91AF919F918F918D
:1002A0007F916F915F914F913F912F910F900FBE72
:1002B0000F901F9018950F931F93CF93DF9300D04B
:1002C00000D000D0CDB7DEB761E089E00E94120B0C
:1002D00061E089E00E944B0B62E087E00E94120B14
:1002E00062E088E00E94120B87E00E94800B8C0184
:1002F00088E00E94800B21E0892B09F420E0012B8B
:1003000049F48091060190910701222309F4BDC1AF
:10031000019607C0211109C0809106019091070143
:10032000029690930701809306018091080188232B
:1003300009F44FC026E040E052EC61E070E083E950
:1003400092E095D462E171E083E992E0DED568E263
:1003500071E083E992E0CED522E030E040E050E069
:1003600060E470E483E992E084D76CE371E083E9B0
:1003700092E0CBD566E471E083E992E0BBD5609171
:100380000601709107014AE050E083E992E062D6ED
:100390006DE471E083E992E0ADD565E571E083E954
:1003A00092E0A8D56CE571E083E992E0A3D54AE03C
:1003B00050E062ED70E083E992E053D667E671E0C9
:1003C00083E992E0A2D564E670E080E090E00E94CC
:1003D0004F0A20E436E042ED61E0809106010E9480
:1003E000390C80910801882329F062E771E083E9E4
:1003F00092E08BD50AE010E0109364020093630250
:100400004CE063E672E080E00E949E0C64E670E0DF
:1004100080E090E00E944F0A0150110968F782E0E5
:100420000E94BA0C109264021092630280E00E9453
:10043000D80C61E085E00E94120B60E081E00E9430
:10044000120B62E083E00E94120B80910801882366
:1004500029F06EE771E083E992E057D582E992E0F6
:100460000E94F61382E992E00E943E158C010097EB
:1004700009F44BC06BE871E083E992E03BD54AE0B8
:1004800050E0B80183E992E0ECD581E080939102DD
:1004900082E992E00E94B41429833A834B835C83FF
:1004A0006D837E8360EA71E083E992E023D5698100
:1004B0007A81882777FD8095982F0E94F21920E095
:1004C00030E048EC52E40E945719AB01BC0122E035
:1004D00030E083E992E0CDD66BEA71E083E992E007
:1004E00009D56D817E8180E090E00E94F01920E0C6
:1004F00030E048EC52E40E945719AB01BC0122E005
:1005000030E083E992E0B5D607C01092910266EB25
:1005100071E083E992E0F9D461E085E00E944B0B41
:1005200062E370E080E090E0BAD780E792E00E945A
:100530000B1260E080E792E00E94ED1280E792E00B
:100540000E94D11090E0909362028093610210E0CB
:10055000612F70E0809161029091620268177907C3
:1005600074F483E0660F771F8A95E1F76F5B7D4F28
:1005700041E083E892E00E941D10811184C060E098
:1005800085E00E944B0B8091610290916202209164
:100590000801892B51F4222329F063EC71E083E9EF
:1005A00092E0B3D410926F0218C081E080936F0282
:1005B000222399F06EEC71E083E992E09BD4609184
:1005C0006102709162024AE050E083E992E042D514
:1005D00065EC71E083E992E098D48091080188236A
:1005E00029F064E670E080E090E059D710926B0249
:1005F00010926C0210926D0210926E0210923D02E7
:1006000010923E0210923F021092400280ED92E062
:10061000A0E0B0E08093390290933A02A0933B02AD
:10062000B0933C021092380243E050E060E271E087
:1006300081E030D680B7806880BF80910801811149
:1006400005C08091640082608093640080916400A2
:10065000806880936400809164008460809364006B
:100660008091640088608093640060E089E0269651
:100670000FB6F894DEBF0FBECDBFDF91CF911F91B3
:100680000F910C944B0B1F5F63CF03964ACEBF9222
:10069000CF92DF92EF92FF920F931F93CF93DF934E
:1006A0002AE7E22EF12CF701B0800BE710E0F80109
:1006B000C080CCE7D0E0D8800E94E10BF701B08287
:1006C000F801C082D882DF91CF911F910F91FF90E6
:1006D000EF90DF90CF90BF900895CF92DF92EF928E
:1006E000FF920F931F93CF93DF9300D000D000D0E1
:1006F000CDB7DEB780913802882331F082E390E0F5
:100700000E94E10B1092380280E590E00E94E10B1C
:10071000813099F48091390290913A02A0913B0284
:10072000B0913C020196A11DB11D809339029093B6
:100730003A02A0933B02B0933C028091390290911F
:100740003A02A0913B02B0913C02823B9240A1054B
:10075000B10570F480913D0290913E02A0913F025C
:10076000B091400284369105A105B10508F481C11C
:10077000F89480913D0290913E02A0913F02B09189
:100780004002AA27BB2740916B0250916C026091F6
:100790006D0270916E02840F951FA61FB71F809384
:1007A0006B0290936C02A0936D02B0936E02109254
:1007B0003D0210923E0210923F0210924002789445
:1007C00080916F02882309F452C061E085E063D70D
:1007D00082E390E05CDF01E412E0E12CF12C8091F7
:1007E000610290916202E816F9066CF420E04BE099
:1007F000B80180E792E00E9462128FEFE81AF80ACF
:10080000085F1F4FECCF80E792E00E946C1387E7F0
:1008100091E03DDF61E472E080E792E00E94F31333
:100820006B017C0160E085E036D720E030E04AEFE4
:1008300052E4C701B6010E94531987FF18C020E097
:1008400030E040E252ECC701B6010E94A21A18162D
:1008500074F420E030E040E251E4C701B6010E94A8
:10086000A61A0E94BF19709366026093650281E028
:1008700093D6BC01882777FD8095982F0E94F219A6
:1008800027E031E244E05DE30E94A61A0E94BF190E
:1008900070936A0260936902809191028823D1F17A
:1008A000809164008F778093640082E992E00E94D7
:1008B000B41429833A834B835C836D837E8369817F
:1008C0007A81882777FD8095982F0E94F21920E081
:1008D00030E040E251E40E9457190E94BF19709322
:1008E0006402609363026D817E8180E090E00E94EB
:1008F000F01920E030E040E251E40E9457190E94D4
:10090000BF197093680260936702809164008068E9
:1009100080936400809164008B7F809364008FEFEC
:100920000E94D80C84E690E0B2DE4CE063E672E010
:1009300080E00E949E0C82E00E94BA0C80E00E943F
:10094000D80C84E690E0A3DE8091640084608093FC
:10095000640080910801882309F47AC065ED71E094
:1009600083E992E0C7D260916302709164024AE029
:1009700050E083E992E06ED36BED71E083E992E0A1
:10098000B9D280916F02882399F06DED71E083E90F
:1009900092E0B0D260916502709166024AE050E048
:1009A00083E992E057D36BED71E083E992E0A2D244
:1009B00080919102882399F065EE71E083E992E0DD
:1009C00099D260916702709168024AE050E083E931
:1009D00092E040D36BED71E083E992E08BD26FEE51
:1009E00071E083E992E086D26091690270916A02B7
:1009F0004AE050E083E992E02DD380916B02909120
:100A00006C02A0916D02B0916E02892B8A2B8B2B08
:100A1000B9F06BED71E083E992E06CD265EF71E0C3
:100A200083E992E067D240916B0250916C02609131
:100A30006D0270916E022AE030E083E992E027D3E4
:100A400083E992E05FD262E370E080E090E027D536
:100A5000F7D46093340270933502809336029093FA
:100A600037021092390210923A0210923B02109211
:100A70003C0226960FB6F894DEBF0FBECDBFDF91C5
:100A8000CF911F910F91FF90EF90DF90CF9008953D
:100A900082E992E00E94F51361E183E892E00E940E
:100AA000FC0F63E872E080E792E00C94C210FC0156
:100AB000818D228D90E0805C9F4F821B91098F7306
:100AC00099270895FC01918D828D981731F0828DC0
:100AD000E80FF11D858D90E008958FEF9FEF089549
:100AE000FC01918D828D981761F0828DDF01A80F36
:100AF000B11D5D968C91928D9F5F9F73928F90E058
:100B000008958FEF9FEF089580EF96E0892B41F0D5
:100B100080E090E0892B21F063D181110C940000DA
:100B20000895FC01848DDF01A80FB11DA35ABF4FAA
:100B30002C91848D90E001968F739927848FA689DC
:100B4000B7892C93A089B1898C9180648C93938D03
:100B5000848D981306C00288F389E02D80818F7DF3
:100B600080830895CF93DF93EC01888D8823C1F0B3
:100B7000EA89FB89808185FD05C0A889B9898C91A6
:100B800086FD0EC00FB607FCF5CF808185FFF2CF42
:100B9000A889B9898C9185FFEDCFCE01C2DFE8CF5E
:100BA000DF91CF910895CF92DF92FF920F931F9321
:100BB000CF93DF931F92CDB7DEB76C0181E0D601F2
:100BC00058968C9358975B969C915B975C968C910A
:100BD0005C97981307C05096ED91FC9151978081D6
:100BE00085FD2DC0F601038D10E00F5F1F4F0F73C1
:100BF0001127F02EF601848DF81210C00FB607FCF5
:100C0000F9CFD6015096ED91FC915197808185FFE7
:100C1000F1CFC601698385DF6981ECCF838DE80F51
:100C2000F11DE35AFF4F6083D6015B960C935B97EF
:100C30005296ED91FC915397808180620CC0D60151
:100C40005696ED91FC91579760835096ED91FC91EB
:100C5000519780818064808381E090E00F90DF91E4
:100C6000CF911F910F91FF90DF90CF900895BF9289
:100C7000CF92DF92EF92FF92CF93DF93EC016A0164
:100C80007B01B22EE889F98982E08083411581EEEB
:100C9000580761057105A1F060E079E08DE390E00F
:100CA000A70196010E94AD1821503109410951094F
:100CB0005695479537952795211580E1380798F087
:100CC000E889F989108260E874E88EE190E0A70174
:100CD00096010E94AD1821503109410951095695DC
:100CE000479537952795EC85FD853083EE85FF8503
:100CF0002083188EEC89FD89B082EA89FB89808186
:100D000080618083EA89FB89808188608083EA89A9
:100D1000FB89808180688083EA89FB8980818F7D5F
:100D20008083DF91CF91FF90EF90DF90CF90BF90C5
:100D300008951F920F920FB60F9211242F938F9345
:100D40009F93EF93FF93E091A302F091A40280811F
:100D5000E091A902F091AA0282FD12C090818091D7
:100D6000AC028F5F8F732091AD02821751F0E0913A
:100D7000AC02F0E0ED56FD4F958F8093AC0201C0C0
:100D80008081FF91EF919F918F912F910F900FBED6
:100D90000F901F9018951F920F920FB60F9211246B
:100DA0002F933F934F935F936F937F938F939F9373
:100DB000AF93BF93EF93FF9383E992E0B2DEFF918D
:100DC000EF91BF91AF919F918F917F916F915F91C3
:100DD0004F913F912F910F900FBE0F901F9018953C
:100DE00083E992E064DE21E0892B09F420E0822F80
:100DF0000895109296021092950288EE93E0A0E07A
:100E0000B0E08093970290939802A0939902B093D8
:100E10009A0280E092E0909394028093930285EC92
:100E200090E09093A00280939F0284EC90E09093D6
:100E3000A2028093A10280EC90E09093A4028093A0
:100E4000A30281EC90E09093A6028093A50282EC2D
:100E500090E09093A8028093A70286EC90E0909394
:100E6000AA028093A9021092AC021092AD021092D5
:100E7000AE021092AF020895CF92DF92EF92FF92EE
:100E80000F931F93CF93DF937C016A01EB0100E086
:100E900010E00C151D0571F06991D701ED91FC91E1
:100EA0000190F081E02DC7010995892B19F00F5FA2
:100EB0001F4FEFCFC801DF91CF911F910F91FF908E
:100EC000EF90DF90CF9008956115710581F0DB01FF
:100ED0000D900020E9F7AD0141505109461B570B19
:100EE000DC01ED91FC910280F381E02D099480E01A
:100EF00090E00895E9CFDC01ED91FC910190F08143
:100F0000E02D09946CE072E0DFCF0F931F93CF9335
:100F1000DF93EC01D9DF8C01CE01F4DF800F911F4C
:100F2000DF91CF911F910F9108958F929F92AF9271
:100F3000BF92DF92EF92FF920F931F93CF93DF93B5
:100F4000CDB7DEB7A1970FB6F894DEBF0FBECDBF09
:100F50007C01F42FD52ECB0119A2223008F42AE00F
:100F60008E010F5D1F4F822E912CA12CB12C6F2F63
:100F70007D2DA50194010E94AD18F22FD32ECA0138
:100F8000015011096A3014F4E0E301C0E7E3E60F11
:100F9000D801EC93232B242B252B49F7B801C7014B
:100FA00093DFA1960FB6F894DEBF0FBECDBFDF91E1
:100FB000CF911F910F91FF90EF90DF90BF90AF9076
:100FC0009F908F900895CF92DF92EF92FF920F93B0
:100FD0001F93CF93DF93EC016A017B01211531054B
:100FE00079F4E881F9810190F081E02D642FDF919F
:100FF000CF911F910F91FF90EF90DF90CF900994C8
:101000002A303105D9F477FF18C06DE274DF8C0106
:1010100044275527BA014C195D096E097F092AE05A
:10102000CE0183DF800F911FDF91CF911F910F9130
:10103000FF90EF90DF90CF9008952AE0B701A601CE
:10104000CE01DF91CF911F910F91FF90EF90DF9034
:10105000CF906BCF9A01AB01662757FD6095762F35
:10106000B2CF0F931F93CF93DF93EC019A01AB01A3
:10107000662757FD6095762FA6DF8C01CE0142DFF3
:10108000800F911FDF91CF911F910F91089521152E
:10109000310541F4DC01ED91FC910190F081E02DEE
:1010A000642F099442CF4F925F926F927F928F92FA
:1010B0009F92AF92BF92CF92DF92EF92FF920F93E7
:1010C0001F93CF93DF93EC016A017B01B22E9A014B
:1010D000AB01C701B6010E94091B882319F06FE01C
:1010E00072E027C026013701E89477F82FEF3FEF31
:1010F0004FE75FE7C301B2010E94091B81110DC0D8
:101100002FEF3FEF4FE75FE7C301B2010E94531992
:1011100018161CF463E172E00CC02FEF3FEF4FE7AD
:101120005FE4C701B6010E94A21A1816A4F467E191
:1011300072E0CE01DF91CF911F910F91FF90EF9060
:10114000DF90CF90BF90AF909F908F907F906F90E7
:101150005F904F90B9CE2FEF3FEF4FE75FECC701A5
:10116000B6010E94531987FDE2CF20E030E0A901CB
:10117000C701B6010E94531987FF09C06DE2CE0175
:10118000BADE8C01F7FAF094F7F8F09402C000E0B0
:1011900010E0A12C60E070E080E09FE3AB1441F030
:1011A00020E030E040E251E40E945719A394F6CFCA
:1011B0009B01AC01C701B6010E94EF186B017C01D5
:1011C0000E94C4192B013C010E94F0199B01AC0143
:1011D000C701B6010E94EE186B017C012AE0B30141
:1011E000A201CE01A2DE080F191FBB2031F060E77B
:1011F00071E0CE0169DE080F191F7B2C772039F1D1
:1012000020E030E040E251E4C701B6010E94A61A96
:101210006B017C010E94BF194B01AA2497FCA0948A
:10122000BA2C2AE030E0B501A401CE01CCDE080FD3
:10123000191FC501B4010E94F2199B01AC01C7013D
:10124000B6010E94EE186B017C017A94D7CFC801D9
:10125000DF91CF911F910F91FF90EF90DF90CF9092
:10126000BF90AF909F908F907F906F905F904F90C6
:1012700008950F931F93CF93DF93EC0114DF8C013C
:10128000CE0140DE800F911FDF91CF911F910F9112
:10129000089508958230E8F4E82FF0E0EE0FFF1F84
:1012A000E75FFE4F71836083813041F08091690078
:1012B0008C7F842B80936900E89A0895809169005F
:1012C000440F551F440F551F837F842B8093690063
:1012D000E99A0895823078F4813011F0E89801C0DD
:1012E000E998E82FF0E0EE0FFF1FE75FFE4F89E47B
:1012F00099E09183808308951F920F920FB60F9209
:1013000011242F933F934F935F936F937F938F930A
:101310009F93AF93BF93EF93FF93E0910901F091F7
:101320000A010995FF91EF91BF91AF919F918F9124
:101330007F916F915F914F913F912F910F900FBED1
:101340000F901F9018951F920F920FB60F921124B5
:101350002F933F934F935F936F937F938F939F93BD
:10136000AF93BF93EF93FF93E0910B01F0910C01CA
:101370000995FF91EF91BF91AF919F918F917F91CF
:101380006F915F914F913F912F910F900FBE0F90F2
:101390001F9018950895C5D0FDDF0E945B01C4E839
:1013A000D5E09BD92097E9F3AFDBFBCF1F920F92DB
:1013B0000FB60F9211242F933F938F939F93AF9368
:1013C000BF938091310390913203A0913303B09188
:1013D00034033091300323E0230F2D3720F401969E
:1013E000A11DB11D05C026E8230F0296A11DB11D48
:1013F000209330038093310390933203A0933303FF
:10140000B09334038091350390913603A091370354
:10141000B09138030196A11DB11D809335039093BF
:101420003603A0933703B0933803BF91AF919F91D8
:101430008F913F912F910F900FBE0F901F90189595
:101440002FB7F89460913103709132038091330388
:10145000909134032FBF08953FB7F89480913503DE
:1014600090913603A0913703B091380326B5A89B1D
:1014700005C02F3F19F00196A11DB11D3FBF662782
:10148000782F892F9A2F620F711D811D911D42E0C7
:10149000660F771F881F991F4A95D1F708958F927D
:1014A0009F92AF92BF92CF92DF92EF92FF926B0129
:1014B0007C01D2DF4B015C01C114D104E104F104D1
:1014C000E1F046D1C9DF681979098A099B09683EAC
:1014D00073408105910580F321E0C21AD108E1082B
:1014E000F10888EE880E83E0981EA11CB11CC1147F
:1014F000D104E104F10431F7DFCFFF90EF90DF90EA
:10150000CF90BF90AF909F908F90089582309105BB
:1015100038F0880F991F880F991F05970197F1F7E9
:101520000895789484B5826084BD84B5816084BD5B
:1015300085B5826085BD85B5816085BDEEE6F0E04C
:10154000808181608083E1E8F0E0108280818260A8
:101550008083808181608083E0E8F0E08081816029
:101560008083E1EBF0E0808184608083E0EBF0E059
:10157000808181608083EAE7F0E0808184608083FD
:1015800080818260808380818160808380818068A7
:1015900080831092C10008958E3008F08E508770BD
:1015A00020910D0190E4299F90011124822B8093BA
:1015B0007C0080917A00806480937A0080917A0028
:1015C00086FDFCCF809178002091790090E0922BED
:1015D0000895833081F028F4813099F08230A1F0B1
:1015E00008958730A9F08830B9F08430D1F4809123
:1015F00080008F7D03C0809180008F778093800072
:10160000089584B58F7702C084B58F7D84BD089519
:101610008091B0008F7703C08091B0008F7D809360
:10162000B0000895CF93DF9390E0FC01E458FF4FA2
:101630002491FC01E057FF4F8491882349F190E009
:10164000880F991FFC01E854FF4FA591B491825572
:101650009F4FFC01C591D4919FB7611108C0F894C8
:101660008C91209582238C93888182230AC06230DA
:1016700051F4F8948C91322F309583238C93888188
:10168000822B888304C0F8948C91822B8C939FBF0B
:10169000DF91CF9108950F931F93CF93DF931F9204
:1016A000CDB7DEB7282F30E0F901E859FF4F84911C
:1016B000F901E458FF4F1491F901E057FF4F0491ED
:1016C0000023C1F0882319F0698383DF6981E02F4B
:1016D000F0E0EE0FFF1FE255FF4FA591B4919FB7C9
:1016E000F8948C91611103C01095812301C0812B66
:1016F0008C939FBF0F90DF91CF911F910F91089511
:10170000CF93DF93282F30E0F901E859FF4F849100
:10171000F901E458FF4FD491F901E057FF4FC4910C
:10172000CC2389F0811155DFEC2FF0E0EE0FFF1F85
:10173000EC55FF4FA591B4912C912D2381E090E0C1
:1017400021F480E002C080E090E0DF91CF91089525
:10175000089583FF02C098E2892787FD06C0806450
:10176000909160009093390302C08091390394B73F
:10177000977F94BFF8949091600098619093600077
:101780008093600078940895EAE7F0E0908180818A
:101790008F77808383B7817F846083BFF89483B71A
:1017A000816083BF85B7806685BF85B78F79806488
:1017B00085BF7894889583B78E7F83BF90937A0096
:1017C0000895DF92EF92FF920F931F93CF93DF93D1
:1017D0008C01EC0128E0E22EF12CC031D10520F182
:1017E0009E01D12C2032310538F0D39489E0D816EF
:1017F00019F036952795F6CF10923A038D2DA9DF73
:10180000C3DF8FEFA6DFC70102C0880F991FDA94EC
:10181000E2F7C81BD90B20913A03222319F0C81B09
:10182000D90BDBCF80E001C081E0409131035091C2
:10183000320360913303709134030C1B1D0B400F76
:10184000511F611D711D409331035093320360930A
:10185000330370933403DF91CF911F910F91FF9069
:10186000EF90DF90089580913A038F5F80933A0361
:101870000895CF92DF92EF92FF921F93CF93DF9361
:10188000C82F162FD42FF901AFEFA60FA33028F4DD
:10189000B0E0A55EBD4FAC9101C0A0E0B0E020E893
:1018A00036E948E950E00E94DE186B017C01212FE7
:1018B00030E0A4ECB9E00E94CF18DF019B01AC013D
:1018C0000E94DE18C60ED71EE81EF91EC701B6011B
:1018D000AFD0D0938E038C2F8F7180938D0364E1F2
:1018E00070E080E090E0DBDD80918D03882339F0AB
:1018F00043E050E06FE67EE080E0CCDC02C080E0B8
:10190000E9DCD4D0C0933B038C2FDF91CF911F91A2
:10191000FF90EF90DF90CF9008958CE393E016D185
:1019200090938503809384032091840330918503F1
:1019300081E02F3F3F4F09F480E00895EF92FF923E
:101940001F93CF93DF931F92CDB7DEB7182F7B0184
:1019500049838BD04981811104C04983DEDF4981ED
:10196000F7CFB701812F0F90DF91CF911F91FF909B
:10197000EF9048C1CF93C82F88D08823B9F0CC23EB
:10198000D9F383B7817FC33021F0C23021F49CE0CA
:1019900003C094E001C090E0892B83BF83B78160CE
:1019A00083BF889583B78E7F83BFE6CFCF9108959D
:1019B00091E0811190E0892F6FC08627682F629592
:1019C0006827062E669566956025062E6695602525
:1019D0006770082E892F669507946795902D862746
:1019E00006946795902586270895E8982A988EBDD5
:1019F0000DB407FEFDCF8EB56EBD0DB407FEFDCF55
:101A00008EB52A9AE89A089560E0EFCF88E2FCDF6D
:101A1000807519F080E0F8DFF9CF0895CF93C82FD3
:101A200081E0F2DF682F637E6C2B81E8CF91DDCF00
:101A300022E0660F771F881F991F2A95D1F729E0AA
:101A40003DE340E050E00E94AD1866E0220F331FF6
:101A5000441F551F6A95D1F720938F03309390034D
:101A600040939103509392030895809188038530A9
:101A700021F480918903882311F080E0089584E0A7
:101A800080938803CBDF81E008959091880381E003
:101A900094300CF080E00895882311F080E001C0BC
:101AA00084E0BCDF84E0809388030895CF93DF93C4
:101AB0002A9A229A2A9A84B18C6284B980E58CBDD4
:101AC0008DB581608DBD6AEA8FEA8FDF8FE29CDF82
:101AD0008A3AC9F765E58FEA88DF8FE295DF8535B9
:101AE000C9F7C2ECD0E0FE018491882331F0319631
:101AF000649180687ADF2296F6CF60918E0381EB45
:101B000074DF80918F0390919003A0919103B09125
:101B10009203BD018827992787E867DF80918F03AB
:101B200090919003A0919103B0919203692F7A2F25
:101B30008B2F992788E859DF60918F0389E855DF5B
:101B400084E080938803DF91CF910895CF93DF9352
:101B5000EC0180918803843019F08530F9F047C09A
:101B600010923E031092890360918E038FEF9FEFD6
:101B700024DF90938C0380938B03D0938703C093CF
:101B8000860385E08093880341DF60E885EA2DDFE6
:101B900080E144DF62E08EE928DF29C080913E03C6
:101BA0002091890390E0049630E08217930724F097
:101BB000809189038834D8F084E0809388032EDFF5
:101BC00080913E038334B0F480918B0390918C0319
:101BD000892B81F480913D0386FF0FC090918D0386
:101BE0009F3159F080913D038F71891731F08FEF4C
:101BF0009FEF05C081E090E002C080E090E0DF91BF
:101C0000CF910895CF9340933E03FB0120E030E055
:101C100050E02417350744F4D901A15CBC4F9191E1
:101C20009C932F5F3F4FF5CF86FD04C0807E90913F
:101C30008D03890F80933D0360918E038FEF9FEF9B
:101C4000BCDE90938C0380938B0390913E038EEFC8
:101C5000891B80938803DADE8CE0E0DE60E085EAB1
:101C6000C4DE809188038330C4F588E2CDDE87FD31
:101C7000F8CF8091880387FF1AC090913E0380912E
:101C80008803E0918603F0918703E90FF11DE80FC7
:101C9000F11D87FDFA95C3816C2F80918B03909184
:101CA0008C038BDE90938C0380938B030DC080910B
:101CB0008803882329F0813031F4C0918C0304C05B
:101CC000C0918B0301C0CAEA6C2F80E88EDE809140
:101CD00088038F5F80938803C4CFCF910895CF93FB
:101CE00080918803853009F04FC060E485EA7DDE8D
:101CF00084E28ADE80938A037894C8E488E284DEF2
:101D00008075E1F38091890381110FC0E091860312
:101D1000F09187038091890391E0980F9093890354
:101D200090918E03E80FF11D908380E06DDEE091CD
:101D30008603F09187039091890321E0290F209376
:101D40008903E90FF11D8083682F80918B039091A7
:101D50008C0333DE90938C0380938B0380913E033E
:101D6000833410F0C093890380913E03209189034E
:101D700090E0049630E08217930794F080918903F5
:101D8000883408F4BBCF0CC088E23EDE83FF08C075
:101D900084E08093880342DE60E885EACF9125CE17
:101DA000CF910895FF920F931F93CF93DF93FC0180
:101DB0000081C181D281F8948981F02EF0948F2125
:101DC000898378941DE7115009F182E090E09EDB51
:101DD00088818023C1F3F8948A818F218A83898145
:101DE000802B8983789480EE91E090DBF894898150
:101DF0008F21898386E490E089DB8881802311E04C
:101E000009F010E078948AE991E080DB812FDF917E
:101E1000CF911F910F91FF9008951F93CF93DF9360
:101E2000FC011081C181D281912F909560FF11C07A
:101E3000F8948A8189238A838981812B89838AE026
:101E400090E064DB8A81812B8A83789487E390E039
:101E500010C0F8948A8189238A838981812B8983A0
:101E600081E490E053DB8A81812B8A83789485E03A
:101E700090E0DF91CF911F9149CB0F931F93CF93A8
:101E8000DF93FC011081C181D281F8948981812B7B
:101E900089838A81012F009580238A8383E090E0E3
:101EA00035DB8981802389838AE090E02FDBC8813C
:101EB000789485E390E02ADB1C2381E009F480E03C
:101EC000DF91CF911F910F910895CF92DF92EF9202
:101ED000FF920F931F93CF93DF931F92CDB7DEB77F
:101EE0006C01E62E08E010E0FF24F39461E09F2DE2
:101EF0009E2109F460E0C60149838FDFFF0C015089
:101F0000110949810115110589F7411115C0F8948E
:101F1000D6011196ED91FC91129791818C9180954B
:101F2000892381831196ED91FC91129792818C9176
:101F300080958923828378940F90DF91CF911F91B0
:101F40000F91FF90EF90DF90CF900895EF92FF9266
:101F50000F931F93CF93DF938C01C8E0D0E0F12C57
:101F6000EE24E394C80189DF8111FE28EE0C21974D
:101F7000C9F78F2DDF91CF911F910F91FF90EF90B7
:101F80000895CF92DF92FF920F931F93CF93DF9329
:101F90001F92CDB7DEB78C01F62E40E065E5798360
:101FA00094DFCF2C7981D72E88E0F82EF60161914D
:101FB0006F0140E0C80189DFFA94C1F70F90DF910B
:101FC000CF911F910F91FF90DF90CF90089540E047
:101FD0006CEC7BCFFC0113861586148627E030E07D
:101FE000DF01A20FB31F13961C922115310519F0C2
:101FF00021503109F5CF08951F93CF93DF93EC0162
:10200000162F60E0812F0EDB612F70E0FB01E4589A
:10201000FF4FE491E883FB01E057FF4FE491F0E0CC
:10202000EE0FFF1FEC55FF4F859194919A838983A2
:10203000CE01DF91CF911F91CDCFAF92BF92CF92C2
:10204000DF92EF92FF920F931F93CF93DF931F9234
:10205000CDB7DEB75C01D62EE72EFC018585811158
:102060005FC0C50149839EDE4981811105C0F5012C
:102070001386158614866DC0442319F040E060EF86
:1020800002C040E06CEEC50120DF01E0F12CC12C64
:1020900011E0C501F2DE682FC5016983EEDE6981BA
:1020A000613019F48130B9F432C02F2D30E068135B
:1020B0001BC0F5018385181730F4E20FF31F8381ED
:1020C000802349F402C0181731F060E0193058F449
:1020D000F501148708C0F501EF0DF11D8381802BF8
:1020E000838361E009C0C12EF501E20FF31F8381F4
:1020F000902F909589238383C5018FDE1F5F000F8A
:1021000011F4F39401E0F7E0FF1508F0C2CF1134A9
:1021100038F0F501C386C11009C081E0858706C08B
:10212000F50113861586148680E013C0F5018381BE
:102130008823B1F3ED2DFE2D80E090E0D501A80FAE
:10214000B91F13962C912193019688309105B1F710
:1021500081E00F90DF91CF911F910F91FF90EF9051
:10216000DF90CF90BF90AF900895DC0180E0615088
:1021700038F0ED91E827F0E0E951FF4F8491F7CF77
:1021800008950895FC0181EC90E1928B818B768318
:1021900065831482108289E0818381E08283838356
:1021A0000895FC0184810895CF93DF93EB0167E0EC
:1021B000CE01DBDF91E02F81821390E0892FDF9148
:1021C000CF910895EF92FF920F931F93CF93DF93D8
:1021D000EC018B01E42E8D819E81FCDEF12C41E02F
:1021E000B8018D819E8129DF882351F0FE1005C042
:1021F000B801CE01D9DF811104C0F394EF1478F750
:1022000080E0DF91CF911F910F91FF90EF900895A3
:10221000CF92DF92EF92FF920F931F93CF93DF93B2
:1022200000D0CDB7DEB76C01F42EE52EFC01858120
:10223000968169837A83B6DD69817A818823F1F09A
:10224000F601858196819DDE40E06EEBF601858189
:1022500096813BDE0F2D1E2D89E0F82EF60185813B
:10226000968174DEF80181938F01FA94B9F7F60133
:102270008581968197DD91E0813009F090E0892F8A
:102280000F900F90DF91CF911F910F91FF90EF90E2
:10229000DF90CF900895CF93DF93EA01B9DF8823D1
:1022A00049F068E0CE0161DF91E02885821390E07B
:1022B000892F01C080E0DF91CF910895EF92FF92C6
:1022C0000F931F93CF93DF93EC018B017A018D81E4
:1022D0009E8168DDB8018D819E8153DE40E06EE411
:1022E0008D819E81F2DD40E0F70162818D819E81CA
:1022F000ECDD40E0F70163818D819E81E6DDF80130
:102300008081803131F040E0F70164818D819E81D0
:10231000DCDD8D819E8146DDB8018D819E8131DEBF
:10232000488168E48D819E81D0DD64E170E080E0C9
:1023300090E0B5D88881882329F06AE070E080E0D9
:1023400090E0ADD88D819E81DF91CF911F910F914B
:10235000FF90EF9027CDEF92FF921F93CF93DF93E3
:1023600000D0CDB7DEB77C01FC0185819681698301
:102370007A8318DD69817A81F7018581968101DE92
:1023800040E064EBF701858196819FDDF70185814F
:10239000968173DD182FF7018581968103DD81E039
:1023A000111180E00F900F90DF91CF911F91FF905E
:1023B000EF900895CF93DF93CDB7DEB729970FB68F
:1023C000F894DEBF0FBECDBFFB0120812031C9F0E4
:1023D000AE014F5F5F4F5FDF882379F08D818F33D0
:1023E00051F020F48F3149F489E00CC08F3539F079
:1023F0008F3739F002C08AE005C080E003C08BE06F
:1024000001C08CE029960FB6F894DEBF0FBECDBF99
:10241000DF91CF910895FF920F931F93CF93DF9396
:10242000CDB7DEB728970FB6F894DEBF0FBECDBF8D
:102430008C01FC0185819681CDDDF801148241E09B
:10244000BE016F5F7F4FF80185819681F6DD88239D
:1024500069F1BE016F5F7F4FC801A6DE882379F363
:10246000F8018081811107C0BE016F5F7F4FC801F5
:1024700072DF811117C0F801F180BE016F5F7F4FDD
:10248000C80198DF8F1518F4F801818105C0BE01DD
:102490006F5F7F4FC8018EDFF801818384818F5F7A
:1024A0008483CDCF81E0F8018083E5CF28960FB6F5
:1024B000F894DEBF0FBECDBFDF91CF911F910F917A
:1024C000FF900895DF92EF92FF920F931F93CF93A7
:1024D000DF93CDB7DEB762970FB6F894DEBF0FBEBD
:1024E000CDBF8C017B01D22E493028F0342F4D30E6
:1024F00018F03CE001C039E0B701C8013A8B5ADF5F
:102500003A89831709F458C0AE014F5F5F4FB70196
:10251000C8013A8BC0DE3A89882309F44FC0F7011D
:102520008081803109F448C03B3041F03C3021F0DB
:102530003A3031F48FE305C08FE703C08FE501C067
:102540008FE18D83AE014F5F5F4FB701C8013A8BBA
:10255000B5DEF80191813A89832F391708F4892F64
:10256000F8018183D11028C0381730F53183E12C70
:10257000F12CF801848190E0E816F906ECF44E2D78
:10258000BE01665F7F4FC8011DDEF801D180BE012C
:10259000665F7F4FC8010EDF8D1518F4F801818149
:1025A00005C0BE01665F7F4FC80104DFF80181836B
:1025B000FFEFEF1AFF0ADDCF81E001C080E06296F5
:1025C0000FB6F894DEBF0FBECDBFDF91CF911F9144
:1025D0000F91FF90EF90DF900895FC0162830895C2
:1025E000CF93DF93CDB7DEB729970FB6F894DEBF50
:1025F0000FBECDBFAE014F5F5F4F0ADE81E0998114
:10260000911101C080E029960FB6F894DEBF0FBE8D
:10261000CDBFDF91CF9108958F929F92AF92BF92DD
:10262000CF92DF92EF92FF920F931F93CF93DF939E
:10263000EC018A016950633048F4E62FF0E0EE0FB8
:10264000FF1FE25EFD4F8080918004C09EEE892EC8
:1026500092E0992E01151105F9F08B818823E1F0A4
:102660008881811119C00E94200A6B017C01AA2473
:1026700097FCA094BA2CB801CE01B2DF81111FC023
:102680000E94200A681979098A099B096C157D0541
:102690008E059F05A0F4EFCFB401882777FD8095C4
:1026A000982FDF91CF911F910F91FF90EF90DF90C6
:1026B000CF90BF90AF909F908F900C944F0ADF9176
:1026C000CF911F910F91FF90EF90DF90CF90BF902F
:1026D000AF909F908F900895CF93DF93EC018D8101
:1026E0009E8160DB8D819E8172DC488164E48D81F6
:1026F0009E81EBDB8A81882339F040E050E06981DC
:10270000CE01DF91CF9188CFDF91CF910895FA016B
:10271000208148E0249F90011124818190E0982F2E
:102720008827990F990F990F282B392BDB018C9152
:102730008031B9F4678170E08681AB01481B510993
:10274000CA019695982F882797958795F3D460515D
:102750007109207F53E0220F331F5A95E1F7260FAE
:10276000371FC9010895EF92FF920F931F93CF93E4
:10277000DF93CDB7DEB729970FB6F894DEBF0FBE53
:10278000CDBF8C017B01AE014F5F5F4F84DD88239D
:1027900039F0AE014F5F5F4FB701C801B8DF02C02B
:1027A00080E894EE29960FB6F894DEBF0FBECDBF39
:1027B000DF91CF911F910F91FF90EF900895813895
:1027C00024EE92075CF0BC01882777FD8095982F56
:1027D00009D620E030E040E05CE3B8C660E070E09D
:1027E0008EEF92EC0895BFDFEACF089584E993E07D
:1027F000F3D160E470E084E993E001D284E993E0EE
:1028000070D2811103C081E0809393038091930380
:102810000895EF92FF920F931F93CF93DF938B0155
:102820007A0160E470E084E993E0E9D1C0E0D0E0AF
:10283000CE15DF054CF40C0F1D1FF801608184E9F3
:1028400093E08CD12196F4CF84E993E0DF91CF918E
:102850001F910F91FF90EF9044C2EF92FF920F9360
:102860001F93CF93DF937B01EA0160E470E084E97A
:1028700093E035D284E993E01AD18C179D07D4F305
:102880008701C8018E199F098C179D073CF484E9C4
:1028900093E015D1F80181938F01F3CF81E090E0AF
:1028A000DF91CF911F910F91FF90EF900895EF92DC
:1028B000FF920F931F93CF93DF931F92CDB7DEB795
:1028C0008C0169837A0141E050E0BE016F5F7F4F68
:1028D000A0DF42E050E0B701C801BFDF0F90DF91F9
:1028E000CF911F910F91FF90EF900895CF93DF93B9
:1028F00000D0CDB7DEB7AE014F5F5F4F60EED7DFE0
:102900002981822F90E0A0E0B0E02227382F492FC4
:102910005A2F8A81282BA4EAB4E450D48D549241D2
:102920000F900F90DF91CF910895CF93DF9300D058
:10293000CDB7DEB7AE014F5F5F4F65EEB8DF2981DF
:10294000822F90E0A0E0B0E02227382F492F5A2FA5
:102950008A81282BA4EDB0E331D4885592400F90A2
:102960000F90DF91CF910895CF92DF92FF920F9356
:102970001F93CF93DF9300D000D000D0CDB7DEB748
:102980006C01D3DF182FF92EC601B0DF082F9A8310
:102990008983BC01882777FD8095982F23D526E66B
:1029A00036E646EE5FE3D2D520E030E048E455E479
:1029B00016D4E5D47C836B831D83FE82202F3A815D
:1029C000462F5C81612F7F2D80E090E026960FB628
:1029D000F894DEBF0FBECDBFDF91CF911F910F9155
:1029E000FF90DF90CF900895EF92FF920F931F9387
:1029F000CF93DF93CDB7DEB728970FB6F894DEBF3D
:102A00000FBECDBF7C018B0142E050E060E171E080
:102A100000DF48E050E0BE016F5F7F4FC7011DDF60
:102A20008981F80180838B8181838D8182838F816D
:102A3000838342E050E06EE071E0C701EADE46E0E9
:102A400050E0BE016F5F7F4FC70107DF8981F8014A
:102A500084838A8185838C8186838D81878381E0CD
:102A600090E028960FB6F894DEBF0FBECDBFDF9181
:102A7000CF911F910F91FF90EF900895CF93DF9327
:102A8000CDB7DEB728970FB6F894DEBF0FBECDBF27
:102A9000BE016F5F7F4FA8DF8D8190E028960FB653
:102AA000F894DEBF0FBECDBFDF91CF910895809126
:102AB000C40390E02091C503821B910908952091E1
:102AC000C5038091C403281750F4E22FF0E0EA53C5
:102AD000FC4F808190E02F5F2093C50308958FEF16
:102AE0009FEF0895E091C5038091C403E81730F487
:102AF000F0E0EA53FC4F808190E008958FEF9FEF64
:102B000008950895CF92DF92EF92FF920F931F9353
:102B1000CF93DF937C01CB018A012091A003222374
:102B200089F0EB016B01C40ED51ECC15DD0561F0FB
:102B30006991D701ED91FC910190F081E02DC701E1
:102B40000995F3CF642F8FD1C801DF91CF911F91E9
:102B50000F91FF90EF90DF90CF900895CF93DF9388
:102B60001F92CDB7DEB769832091A0032223D1F055
:102B70002091A103203240F021E030E0FC013383BA
:102B8000228380E090E014C08091A203E82FF0E05F
:102B9000ED55FC4F998190838F5F8093A2038093C2
:102BA000A10304C061E0CE0101965DD181E090E017
:102BB0000F90DF91CF910895FC011382128248EEAD
:102BC00053E060E070E0448355836683778388E256
:102BD00092E09183808308951092C5031092C403FC
:102BE0001092A2031092A10381C081E08093A00300
:102BF0006093C3031092A2031092A1030895F5CF2E
:102C00000F93062F21E04091A10363EA73E08091C6
:102C1000C303D2D01092A2031092A1031092A0037A
:102C20000F9108958F929F92AF92BF92CF92DF92B1
:102C3000EF92FF920F931F93CF93DF93EC01F62E49
:102C4000D42E48015901EE2009F1CFDF1E2D14309A
:102C500008F013E01150B8F0E881F98128E0129FE4
:102C6000B0011124A501940104C0569547953795EC
:102C700027956A95D2F7CA01B9010190F081E02D3C
:102C8000CE010995E7CF60E0CE01BADF4D2D41328C
:102C900008F040E22C2D66EC73E08F2D45D01092A9
:102CA000C5038093C403DF91CF911F910F91FF90D3
:102CB000EF90DF90CF90BF90AF909F908F9008954E
:102CC000CF92EF920F931F93C22EE12C00E010E001
:102CD0009801A8DF1F910F91EF90CF90089521E008
:102CE000EFCF61E08DCF84E993E066CF109253047B
:102CF00081E0809351041092500461E082E10E94CF
:102D00004B0B61E083E10E944B0BE9EBF0E080812B
:102D10008E7F808380818D7F808388E48093B8005C
:102D200085E48093BC000895413208F043C090913F
:102D300053049111FCCF91E09093530420935104DC
:102D40002FEF2093E60310922B04240F20932A04E4
:102D50009093520490915204880F892B80935204CF
:102D600080915004813061F410925004809152049B
:102D70008093BB008091BC0083FDF8CF85EC01C03F
:102D800085EE8093BC00809153048130E1F3809103
:102D90002B04841710F440912B042CE234E0FB0147
:102DA000D9018A2F821B841718F48D918193F9CF52
:102DB000842F089580E008950F93413208F04AC0AF
:102DC000909153049111FCCF92E09093530400939F
:102DD00051049FEF9093E60310922B0440932A0432
:102DE000FB016CE274E0DB019A2F961B941718F438
:102DF00091919D93F9CF1092520490915204880FB3
:102E0000892B8093520480915004813061F4109298
:102E10005004809152048093BB008091BC0083FDDC
:102E2000F8CF85EC01C085EE8093BC00222321F011
:102E3000809153048230E1F38091E6038F3F61F08B
:102E40008091E603803251F08091E603803341F4B3
:102E500083E007C081E005C080E003C082E001C0DC
:102E600084E00F910895613298F420915304243046
:102E700089F460930804FC018AE094E0DC012A2FC5
:102E8000281B261718F421912D93F9CF80E008957F
:102E900081E0089582E0089585ED8093BC008091E3
:102EA000BC0084FDFCCF10925304089585EC809300
:102EB000BC001092530408951F920F920FB60F9208
:102EC00011242F933F934F935F936F937F938F932F
:102ED0009F93AF93BF93EF93FF938091B900887F47
:102EE000803609F49DC070F5883209F45CC090F416
:102EF000803109F455C038F4882309F4F3C08830D0
:102F000009F44EC0F2C0883109F44DC0803209F492
:102F10005EC0EBC0803409F469C050F4803309F41A
:102F200056C0883309F0E1C08093E603BFDFDDC0FF
:102F3000803509F44FC0883509F45DC0883409F044
:102F4000D4C0D2C0883909F4C3C0A8F4883709F4C2
:102F500067C038F4883609F463C0803709F460C06C
:102F6000C4C0883809F4B4C0803909F45FC080381F
:102F700009F0BBC05BC0803B09F482C038F4803AE2
:102F800009F466C0883A09F47BC0AFC0803C09F4FC
:102F9000A3C0883C09F4A0C0883B09F486C0A5C042
:102FA0008091520410C090912B0480912A049817AC
:102FB00070F5E0912B0481E08E0F80932B04F0E0FC
:102FC000E45DFB4F80818093BB0085EC82C08093E1
:102FD000E6038AC0E0912B0481E08E0F80932B04DE
:102FE0008091BB00F0E0E45DFB4F808390912B0467
:102FF00080912A046AC0E0912B0481E08E0F8093B7
:103000002B048091BB00F0E0E45DFB4F8083809156
:103010005104811169C081E08093500484EA5DC04D
:1030200083E0809353041092E703CFCF8091E703AE
:10303000803208F04DC0E091E70381E08E0F80936D
:10304000E7038091BB00F0E0E851FC4F8083BDCFE7
:103050002DDF8091E703803230F4E091E703F0E068
:10306000E851FC4F10826091E70370E0E0914C045E
:10307000F0914D0488EE93E009951092E70335C076
:1030800084E0809353041092090410920804E091A4
:103090004E04F0914F04099580910804811105C0F8
:1030A00081E08093080410920A04E091090481E011
:1030B0008E0F80930904F0E0E65FFB4F80818093E0
:1030C000BB009091090480910804981708F47DCF03
:1030D00085E88093BC0009C085EC8093BC00109209
:1030E000530403C01092E603D7DEFF91EF91BF9126
:1030F000AF919F918F917F916F915F914F913F9190
:103100002F910F900FBE0F901F901895AA1BBB1BFD
:1031100051E107C0AA1FBB1FA617B70710F0A61BD7
:10312000B70B881F991F5A95A9F780959095BC01F8
:10313000CD01089597FB072E16F4009406D077FD75
:1031400008D0E4DF07FC05D03EF4909581959F4FB1
:103150000895709561957F4F0895A1E21A2EAA1BDC
:10316000BB1BFD010DC0AA1FBB1FEE1FFF1FA21737
:10317000B307E407F50720F0A21BB30BE40BF50B34
:10318000661F771F881F991F1A9469F760957095BD
:10319000809590959B01AC01BD01CF010895A29F40
:1031A000B001B39FC001A39F700D811D1124911D1B
:1031B000B29F700D811D1124911D0895F0DFA59F10
:1031C000900DB49F900DA49F800D911D1124089522
:1031D000EE0FFF1F0590F491E02D09945058BB2786
:1031E000AA270ED075C166D130F06BD120F031F432
:1031F0009F3F11F41EF45BC10EF4E095E7FB51C153
:10320000E92F77D180F3BA17620773078407950710
:1032100018F071F49EF58FC10EF4E0950B2EBA2FC5
:10322000A02D0B01B90190010C01CA01A0011124CC
:10323000FF27591B99F0593F50F4503E68F11A1678
:10324000F040A22F232F342F4427585FF3CF469509
:1032500037952795A795F0405395C9F77EF41F162B
:10326000BA0B620B730B840BBAF09150A1F0FF0FF5
:10327000BB1F661F771F881FC2F70EC0BA0F621FE1
:10328000731F841F48F4879577956795B795F795D1
:103290009E3F08F0B3CF9395880F08F09927EE0F63
:1032A000979587950895D9D008F481E008950CD0BA
:1032B0000FC107D140F0FED030F021F45F3F19F08C
:1032C000F0C0511139C1F3C014D198F39923C9F357
:1032D0005523B1F3951B550BBB27AA27621773071C
:1032E000840738F09F5F5F4F220F331F441FAA1FD0
:1032F000A9F333D00E2E3AF0E0E830D09150504090
:10330000E695001CCAF729D0FE2F27D0660F771F3D
:10331000881FBB1F261737074807AB07B0E809F01F
:10332000BB0B802DBF01FF2793585F4F2AF09E3FB4
:10333000510568F0B6C000C15F3FECF3983EDCF386
:10334000869577956795B795F7959F5FC9F7880F2D
:10335000911D9695879597F90895E1E0660F771F7F
:10336000881FBB1F621773078407BA0720F0621B10
:10337000730B840BBA0BEE1F88F7E095089504D009
:103380006894B111D9C00895BCD088F09F5790F0CF
:10339000B92F9927B751A0F0D1F0660F771F881F7A
:1033A000991F1AF0BA95C9F712C0B13081F0C3D095
:1033B000B1E00895C0C0672F782F8827B85F39F033
:1033C000B93FCCF3869577956795B395D9F73EF4D9
:1033D00090958095709561957F4F8F4F9F4F089581
:1033E000E89409C097FB3EF490958095709561959F
:1033F0007F4F8F4F9F4F9923A9F0F92F96E9BB2755
:103400009395F695879577956795B795F111F8CFD0
:10341000FAF4BB0F11F460FF1BC06F5F7F4F8F4F3B
:103420009F4F16C0882311F096E911C0772321F031
:103430009EE8872F762F05C0662371F096E8862FC9
:1034400070E060E02AF09A95660F771F881FDAF720
:10345000880F9695879597F90895990F0008550F4D
:10346000AA0BE0E8FEEF16161706E807F907C0F00A
:1034700012161306E407F50798F0621B730B840B12
:10348000950B39F40A2661F0232B242B252B21F4EC
:1034900008950A2609F4A140A6958FEF811D811D8C
:1034A000089597F99F6780E870E060E008959FEFC6
:1034B00080EC089500240A941616170618060906CB
:1034C000089500240A94121613061406050608959A
:1034D000092E0394000C11F4882352F0BB0F40F422
:1034E000BF2B11F460FF04C06F5F7F4F8F4F9F4F62
:1034F000089557FD9058440F551F59F05F3F71F0E4
:103500004795880F97FB991F61F09F3F79F087954A
:103510000895121613061406551FF2CF4695F1DFD3
:1035200008C0161617061806991FF1CF8695710563
:10353000610508940895E894BB2766277727CB0197
:1035400097F908958ADF08F48FEF08950BD0C0CF64
:10355000B1DF28F0B6DF18F0952309F0A2CFA7CF8E
:103560001124EACFC6DFA0F3959FD1F3950F50E069
:10357000551F629FF001729FBB27F00DB11D639F25
:10358000AA27F00DB11DAA1F649F6627B00DA11DCB
:10359000661F829F2227B00DA11D621F739FB00D71
:1035A000A11D621F839FA00D611D221F749F3327E1
:1035B000A00D611D231F849F600D211D822F762F7A
:1035C0006A2F11249F5750408AF0E1F088234AF077
:1035D000EE0FFF1FBB1F661F771F881F91505040C3
:1035E000A9F79E3F510570F05CCFA6CF5F3FECF38B
:1035F000983EDCF3869577956795B795F795E795AF
:103600009F5FC1F7FE2B880F911D9695879597F9BF
:0E361000089523DF880B990B0895F894FFCFDF
:10361E000000540480001700014909490901FCC942
:10362E00FA0F4F70656E456E657267794D6F6E69F4
:10363E00746F722E6F726700656D6F6E5448202D19
:10364E00204669726D7761726520560052464D367E
:10365E003943573A20004E6F64653A200020467277
:10366E0065713A20003433334D687A00204E65740C
:10367E00776F726B3A2000496E742052464D2E2E93
:10368E002E0052464D205374617274656400496E6B
:10369E0074205349373230312E2E00534937303291
:1036AE003120537461727465642C2049443A2000B1
:1036BE0053493730323120743A2000534937303273
:1036CE003120683A2000534937303231204572722A
:1036DE006F72004E6F204453313842323000466FC5
:1036EE00756E64200074656D703A002C0074656D03
:1036FE007065783A0068756D69646974793A00622C
:10370E006174743A0070756C73653A0000000000C5
:10371E00D3053C07570570056205B2050D0A006E0C
:10372E00616E00696E66006F7666002B565A5E00FB
:10373E00BC00770100000000AE15821557155F150D
:04374E00721581155A
:00000001FF
